:10000000D82A0020B52D0000B12D0000B12D000030
:1000100000000000000000000000000000000000E0
:10002000000000000000000000000000B12D0000F2
:100030000000000000000000B12D0000B12D000004
:10004000B12D0000B12D0000B12D0000B12D000038
:10005000A90C0000B12D0000B12D0000F125000019
:10006000B12D0000B12D0000B12D0000B12D000018
:10007000B12D0000B12D0000B12D0000B12D000008
:10008000B12D0000B12D0000B12D0000B12D0000F8
:10009000B12D0000B12D0000B12D0000B12D0000E8
:1000A000B12D0000B12D0000B12D0000B12D0000D8
:1000B0000000000010B5064C2378002B07D1054B3B
:1000C000002B02D0044800E000BF0123237010BDC4
:1000D000E00000200000000094320000084B10B542
:1000E000002B03D00749084800E000BF0748036819
:1000F000002B00D110BD064B002BFBD09847F9E731
:1001000000000000E400002094320000943200005F
:100110000000000010B5002000F078F910BD0000CC
:1001200010B5002800D010BD00F070F9034A8021FE
:10013000C900034800F0E7F9F5E7C04645010000B3
:100140000001002010B50C00002800D010BD0130C7
:1001500000F05CF9024A2100024800F0C9F9F5E715
:10016000210100000001002010B5002800D010BDC2
:1001700000F04CF9034A8021C900034800F0D9F986
:10018000F5E7C0468D0100000001002010B50C000D
:10019000002800D010BD013000F038F9024A2100DB
:1001A000024800F0BBF9F5E76901000000010020FA
:1001B00010B50C00002814D1002913D1104B187869
:1001C00042425041C0B2187040020E4C241801F057
:1001D000A3FB4021002800D1C0310B4A200000F0D1
:1001E000BEF910BD013000F011F9054B1B785B0220
:1001F0000448C018054A210000F0A6F9DEE7C04611
:10020000FD00002000010020B101000015010000E8
:10021000F8B5DE4657464E464546E0B50121334B1C
:100220001970BFF35F8F62B6314B00221A705A709B
:100230009A70DA70197101F052F800F0CFF800F0FE
:1002400059FA2A4F0024261C294DB84601239C4602
:10025000BB46284B9A460F2399460EE019000132FF
:100260004B1CDBB210780028F8D0002B0FD143468E
:1002700062461A70BFF35F8F62B672B6BFF35F8FCC
:100280003E702B78002BF2D12100194AE7E772B6B5
:10029000BFF35F8F5B461C7053469B691B0A4A463F
:1002A0001340022B05D8144A5068C0239B00034317
:1002B000536002290BD9032911D00C4B62461A70E6
:1002C000BFF35F8F62B6BFF34F8F30BFD5E70B4AE6
:1002D0001369042083431361094B5970EDE7074A02
:1002E000136904210B431361E7E7C046DD000020DA
:1002F00050060020002000410040004100ED00E0D9
:100300000004004010B500F071F810BD10B500F009
:1003100075F810BD10B5054B1B78002B00D110BD32
:1003200001F0FCFA00F078F8F9E7C046FC00002084
:1003300010B501220A4B1A70002200210020FFF79D
:10034000EFFE002200210020FFF70EFF0022054BE8
:100350001A7000210020FFF72BFF012010BDC046BE
:10036000FC000020FD0000200022014B1A707047A5
:10037000FC00002010B5012000F048F8074A084BA7
:100380009360D388191C8020C0009BB2834201D99E
:10039000044B19889181012010BDC04680090020BE
:1003A000000100202632000010B5002000F02EF8D9
:1003B000074A084B9360D388191C8020C0009BB269
:1003C000834201D9044B19889181012010BDC04698
:1003D0008009002000010020263200008022D20582
:1003E000014B5A617047C046804400418022D205CB
:1003F000014B9A617047C046804400418022D2057B
:10040000014B5A617047C04680440041014B18704F
:100410007047C0460000002010B50F4B1B78002B22
:100420000BD1FA21890002F0B9FD89B2002909D166
:100430008022D205094B5A6103E08022D205074B86
:100440005A6110BDFA235B009942FAD18022D2058D
:10045000024B9A61F5E7C04600000020804400414D
:10046000014B18787047C0460005002010B500F019
:100470003BF9C378044A13700120012B00D010BD52
:10048000FFF756FFFBE7C0460005002010B5044B00
:100490001B78012B00D010BDFFF766FFFBE7C046BD
:1004A0000005002010B5114B1A7853B2002B05DB64
:1004B000602313400020402B0CD010BD602313405C
:1004C0000020402BF9D1094B5B78002BF5D1FFF7C9
:1004D0006BFFF2E7054B5B78002BEED1034BDB881B
:1004E000002BEAD0FFF746FFE7E7C046800900206F
:1004F00000B583B00B00009202000021812001F0C2
:1005000063FB03B000BD00B583B00B000092020096
:100510000021022001F058FB03B000BD00B583B0FC
:100520000B00009202000021832001F04DFB03B07C
:1005300000BD00B583B00B00009202000021042032
:1005400001F042FB03B000BD00B583B00B00009288
:1005500002000021852001F037FB03B000BD00B58B
:1005600083B00B00009202000021062001F02CFB5A
:1005700003B000BD10B5114B1B681A689478D3788E
:100580001B022343D2180378C018904210D243783C
:10059000042B0FD08B420AD00378C018904205D2AA
:1005A0004378042B08D08B42F6D100E0002010BD28
:1005B0000020FCE70020FAE70020F8E71005002003
:1005C00010B5034B5B887F20184001F0DDFB10BDA8
:1005D0008009002070B5194B1B780022002B29D010
:1005E000174B1B681B681C79844223D9154A13607A
:1005F0009A78DC78240214431C19A3421CD20025EB
:10060000012607E00F4A13600FE01A789B183500A7
:10061000A3420CD25A78042AF7D19A788242F4D1B4
:10062000DA788A42F1D1002DECD1012202E0054AAC
:1006300013600022100070BD0022FBE70C050020B3
:10064000100500201405002070B504000021FFF7FC
:10065000C1FF051E01D1280070BD0E4B1B685B68F1
:10066000A200D658F368984701002000FFF7B2FFB8
:10067000051EF0D0084B1C6805212000FFF77AFF0B
:10068000041E03D0807801F051F9F5E773689847AC
:10069000E1E7C046100500201405002070B50500F4
:1006A000FFF798FF002819D00D4B1C68052120008A
:1006B000FFF760FF041E0AD00379427912021A4341
:1006C000C178807801F054F90028EFD106E0054B9D
:1006D0001B685B68AD00EB581B68984770BDC0464F
:1006E0001405002010050020014B18687047C04613
:1006F0001405002010B501F0C5FB10BD70B50E4B00
:100700001B78002B11D00D4B1B681B681B79002B2D
:100710000BD00024094D2000FFF796FF0134E4B20E
:100720002B681B681B79A342F5D80022024B1A7074
:100730000132034B1A8070BD0C050020100500200B
:100740000205002070B50E4B1B78002B17D00D4B07
:100750001B681A681279002A11D00024094D06E09E
:100760000134E4B22B681A681279A24207D95B6897
:10077000A200D3581B69002BF2D09847F0E770BD58
:100780000C0500201005002070B5AA4B00229A81AC
:100790001A615A611B785AB2002A13DB60221A428E
:1007A00000D1D7E0A34B1A781F231340012B00D1AF
:1007B00066E1A04B1A781F2313400020022B00D1C2
:1007C000BCE170BD9B4AD2880020002AF9D060218C
:1007D0001942E7D11F210B4008D1964949780629D3
:1007E00023D0082900D184E0002917D0012B00D1A3
:1007F00087E0022BD6D18F4B5B780020002B00D0F6
:1008000098E1022AD5D18B4B187901F02DF98A4B4A
:1008100018800221180001F0C7FAFCE0022AC8D1B2
:100820000231864801F0C0FAF5E0824B5A88130A7B
:10083000022B23D0D9B202290FD9032B34D00F2B8E
:1008400000D074E17E4B98680028B2D08378C178DC
:100850000902194301F0A8FA07E0012B00D066E174
:10086000774B1868017801F09FFA724BDA889B8900
:10087000934200D8CFE06F4B9A81CCE0D2B2704B5C
:100880001B685B7C934200D893E76D4B5B68D2009A
:10089000D0588378C1780902194301F085FA654B75
:1008A0009B6802225A70E0E7FF231A40012A1DD0FC
:1008B000002A16D0022A00D074E7624C1421624A42
:1008C00002320023E05C108001330232D8B2884249
:1008D000F8D3490002315C48017089B201F064FA32
:1008E000C3E70421594801F05FFABEE7584C0921DB
:1008F000E5E7012A00D05CE70121564801F054FAEF
:1009000089E04C4949780A2900D072E7012A00D0D1
:10091000B6E0504B1B78002B00D1B1E0454B1C7961
:100920004D4B1D682B681B79A34200D8A8E000211D
:100930002000FFF74FFE002800D133E76B68A400CA
:10094000E358DB689847454B18700121180001F007
:100950002BFA60E01F2213405FD1364A5278032AF7
:1009600000D1E6E0D1B203293BD9052A4BD0092AB0
:1009700053D1304BDB88002B00D01AE701F00CFA82
:10098000002800D10EE72B4B9A782D4B1B685B7C1F
:100990009A4200DD06E7FFF7B1FE264B9B782D4A11
:1009A0001370002B37D02E4A94466344DB00244A50
:1009B0005268D318284A13601B681B79002B2AD071
:1009C0000024150000212000FFF768FE002800D158
:1009D000E8E60134E4B22B681B681B79A342F1D826
:1009E00019E0012A19D1134BDB88002B00D0E0E677
:1009F000104B5B88012B00D0DBE6104A13880221E4
:100A00008B43138007E00B4BDB88002B00D0D0E634
:100A1000144A084B1A610120D3E6012B24D0022B83
:100A200000D0BFE6034B5B78012B5FD0032B6CD06B
:100A300000207FE08009002004050020020500203E
:100A400018000020C80000208C000020B800002002
:100A5000BC0000200C050020100500200805002027
:100A6000FFFFFF1FC1050000484A52780B2AD6D16C
:100A7000464BDB88002B03D1454B1B78002B27D13D
:100A8000434B1B780020002B00D19AE63F4B1C798A
:100A9000404B1D682B681B79A34200D891E60021CA
:100AA0002000FFF797FD002800D182E66B68A200C6
:100AB000D558EB68984701002000FFF78BFD002810
:100AC00000D176E6AB689847002800D079E670E65A
:100AD0002E4B1D795C882800FFF7B6FD002800D159
:100AE00060E6E1B22800FFF7D9FD23E0274BDB8861
:100AF000002B00D05DE6254B5B88002B00D058E62C
:100B0000224B187901F042F814E0204BDB88002BCF
:100B100000D04EE61D4B5B88002B00D049E61B4CF5
:100B2000207900F0DFFE207900F0A6FF02E000202F
:100B300000E00020002800D043E633E6144B1B7889
:100B4000002B00D13DE6134B1B681A681279002A6E
:100B50001AD000250F4E5B68AA00D458E368984766
:100B600001002800FFF736FD002800D129E6A36820
:100B70009847002800D024E60135EDB233681A68A2
:100B80001279AA42E7D81CE600201AE68009002064
:100B90000C050020100500200C4B1B68002B06D113
:100BA000EFF31083002B07D00022094B1A70074A7D
:100BB000136801331360704772B6BFF35F8F002272
:100BC000044B1A700132024B1A70F0E7180500202E
:100BD0001C050020DD000020084B1A68013A1A604D
:100BE0001B68002B09D1064B1B78002B05D0012276
:100BF000044B1A70BFF35F8F62B670471805002070
:100C00001C050020DD00002070B582B001AC01257C
:100C100065700026A670257021003E2000F0EEF8D9
:100C20008022D205044B9A612670657021000F2046
:100C300000F0E4F802B070BD804400411723002AA0
:100C400001D0180070478B00064A9B58002B03D038
:100C5000834205D01D23F4E7890088500023F0E784
:100C60000023EEE7580600201723002901D01800C2
:100C7000704700221F2800D8024A01238340D36016
:100C80000023F4E7001800401723002901D01800C2
:100C9000704700221F2800D8024A01238340936036
:100CA0000023F4E70018004070B50022104B1A70C2
:100CB000002310491F25104E0D4C0AE00D4908E095
:100CC00023780133DBB223700F2B10D800211F2BA8
:100CD000F4D9280018400122824008691042EFD060
:100CE0000A619B009B59002BEAD09847E8E770BD4A
:100CF000550600200018004058060020044A1378CA
:100D000002210B43137053785BB2002BFBDB70475F
:100D10000018004000B583B0124A936940210B438C
:100D2000936101A900230B70052000F061FA0520F2
:100D300000F020FA0C4A137801210B43137053780A
:100D40005BB2002BFBDB094B19004031002204C3CE
:100D50009942FCD11022064B1A60FFF7CFFF03B077
:100D600000BDC046000400400018004058060020A6
:100D700000E100E00023036043600122027242723E
:100D800083720233C3727047F0B583B005000C0064
:100D900001A900234B70CB7023790B70237A8B70E1
:100DA000207800F085FA00201F2D00D81248072275
:100DB0002A409200E77AA37A002B01D008231F4330
:100DC000EB089B00C31899690F269640B1439740E2
:100DD0003A000A439A61637A002B06D143690122E3
:100DE000AA409343436103B0F0BD42690123AB4085
:100DF00013434361F7E7C0460018004000B583B0D5
:100E000001AB80221A700A785A704A789A708A78F0
:100E1000DA70190000F04CFA03B000BD70B50C494F
:100E20000B6A0478857840780122104080014026C2
:100E3000B34303432A40D201802083431343032258
:100E4000224012020348034013430B6270BDC046A8
:100E500000080040FFFCFFFF10B5037A9B061B0C47
:100E600042899205920D134318494B608379C279E8
:100E7000134342888488224313434278D2011343A8
:100E80000B600378042B11D0202B0ED1037B9B0623
:100E9000028A1343C28912040D490A4013430B4AC4
:100EA000936011680B4B0B43136010BD037B9B06D3
:100EB000028A1343C289120405490A401343034AB4
:100EC0009360136804210B431360EEE720050020B4
:100ED0000000FF0324040000082803D88000254BED
:100EE0001B589F46172044E0234A136A02210B43F4
:100EF000136200203DE0204A936902210B43936175
:100F0000002036E01C4A138A02210B431382002082
:100F10002FE0194A938A02210B439382002028E094
:100F200016490B68022213430B60134B9A84190075
:100F30000E32CB681A42FCD0104A91680E4BD9622F
:100F400052689A6200229A8419001032CB681A42C1
:100F5000FCD00A4B1B689BB2074A9384002008E030
:100F6000054944228B5C022003438B54002000E09F
:100F700000207047283200000008004020050020B3
:100F800010B58AB0C222D200304B9A60304A536802
:100F90001E218B431A390B435360012201AB1A7097
:100FA0000024E0B201A900F023F90134252CF8D186
:100FB00005AB0022002159809A71DA712031197035
:100FC0005A70244B1B689B0E3F2B3DD005A8037223
:100FD000072303730333C3811F4B4381FF3B83808C
:100FE0001E4B0382FFF738FF04A800234370012241
:100FF00082700370FFF712FF0620FFF76DFF00F00D
:1010000031F80720FFF768FF10491022CB681A4219
:10101000FCD00E4A938C80210B439384104A00230A
:10102000137253729372D37201A901224A604B70FA
:101030004B7207330B700A72002000F025F8002075
:1010400000F07AF80AB010BD203BBFE7000800406E
:101050000040004124608000FF01000080BBFFFFD2
:1010600000040040064A936908210B439361012262
:10107000044B1A7019000B781342FCD17047C0461C
:1010800000040040000C004070B5060004000D781C
:101090002D0205434B78002B02D08023DB021D4339
:1010A0004B7A002B02D080231B031D434868012884
:1010B00010D9431E184234D1022830D9022300220D
:1010C00001325B009842FBD81202324314008023A5
:1010D0005B031D430B7A002B02D080239B031D432F
:1010E000134A53785BB2002BFBDBFFF755FD114B26
:1010F0001E700F4A53785BB2002BFBDB0C4B9C60DD
:101100001A0053785BB2002BFBDB094A536880213D
:1011100049020B401D435560FFF75EFD70BD002284
:10112000D2E70402344380239B021D43D2E7C0462A
:10113000000C0040080C004010B504000B4A537826
:101140005BB2002BFBDBFFF727FD094B1C70074A46
:1011500053785BB2002BFBDB044A516880235B02AF
:101160000B435360FFF738FD10BDC046000C004034
:10117000040C004010B50400FFF70EFD054B1C7079
:10118000054A53888021C9010B435380FFF724FD92
:1011900010BDC046020C0040000C004010B5040019
:1011A000FFF7FAFC0E4B1C700E4A53881B05180FF4
:1011B00053880D490B40538053880C490B40538092
:1011C00011008022D2014B881342FCD105494A8884
:1011D00003020548024013434B80FFF7FDFC10BD9E
:1011E000020C0040000C0040FFF0FFFFFFBFFFFFBC
:1011F00010B50C7824020443FFF7D0FFA4B2014BD2
:101200005C8010BD000C004030B5D378002B35D188
:101210001378802B29D01B06802464022343547842
:101220000225AC4306D19478002C20D18024A4025E
:10123000234341605478013C012C1CD90D042D0C32
:10124000A024E4052C431C4384620D0CD024240606
:101250002C431C438462D478002C22D15B031CD520
:101260009378012B1ED0416117E00023D7E7C024FB
:10127000E4022343DDE70D4C2340DFE741600C042B
:10128000240CA023DB05234383620C0CD0231B0614
:1012900023438362D378002B03D15378013B012B86
:1012A00002D930BD8161F8E78160FAE7FFFFFBFFFB
:1012B00010B50A00C1090023002904D14309DB014C
:1012C00005498C4663441F242040012181401800B9
:1012D000FFF79AFF10BDC04600440041704710B5AB
:1012E000FFF74EFEFFF790FCFFF7F8FFFFF712FD48
:1012F000FFF7F4FF10BD000010B584B003AB00226F
:101300001A7003325A70013A9A70013ADA70274B18
:101310001B78834207D0002807D1244B1B78002B71
:1013200023D1224B187004B010BD03AB1B5C204AC4
:10133000D25CFF2A00D1FEE7EFF3108251424A410E
:10134000019272B6BFF35F8F00211A4A1170019C9F
:101350001749CA5C0132CA54002CDED00122154B59
:101360001A70BFF35F8F62B6D7E703AAD35C104A47
:10137000D25C002A00D1FEE7EFF3108251424A41CD
:10138000029272B6BFF35F8F00210A4A1170029C6D
:101390000749CA5C013ACA54002CC2D00122054B4D
:1013A0001A70BFF35F8F62B6BBE7C04630060020FD
:1013B00050060020DD00002043060BD00F23034021
:1013C0005B00C00918180238830018188000024B0F
:1013D000181870470020FCE740050020F0B5D646FD
:1013E0004F464646C0B589468D796BB2002B26DB49
:1013F0002800FFF7E1FF04000F272F40038A9846DB
:101400004B461B889A46837C5B076AD4E368534447
:101410001E00E360A3689E4200D874E0E360A37CF2
:1014200001229343A3742368002B03D0E1682A00B0
:10143000002098471CBC90469946A246F0BD280063
:10144000FFF7BAFF04000F272F40038A98464B4648
:101450005E88C3689C466644C66081688E4225D01B
:101460008D1BADB2414B9D4206D91D00414618006F
:1014700001F07EFE6D1AADB2A27C0023920707D563
:101480004146280001F08AFD89B24B424B41DBB254
:101490005B00A27C02218A431343A3746268921901
:1014A0002B003900324801F02FF8C3E7837C9B07FB
:1014B0000BD4837C0122934383740368002BB9D03F
:1014C0002A00310000209847B4E7837C022293432E
:1014D00083744268921900233900254801F014F8FA
:1014E000A8E74368C268944663441E00414680688A
:1014F00001F054FD0A007B1E9B011E495918300063
:1015000001F080FE82E74A469288524500D086E785
:101510009E4200D183E79B1B9DB2144B9D4216D97E
:101520001D004146180001F023FE6B1A9BB298453E
:1015300014D9A37C04221343A3747A1E92010D4B89
:10154000D218434639000A4801F008F872E74146CC
:10155000280001F023FD6B1A9BB2E8E7626892193C
:101560003900034800F0FAFF64E7C046FF1F00009F
:10157000180800209806002010B50522054B1A70A7
:10158000054C8021200000F069FF0021200000F0C0
:1015900078FF10BD3E0500201808002010B5084C4B
:1015A0000621200000F0FAFC0421200000F0F6FCE7
:1015B0000221200000F0E2FC0220FFF79DFE10BD9A
:1015C0001808002010B5144B9B8C9B061DD41249A3
:1015D000D022CB681340D02BFBD1104C022120002D
:1015E00000F0DCFC0421200000F0C8FC0C4A0621BD
:1015F000200000F0B1FC0621200000F0BFFC032019
:10160000FFF77AFEFEF782FE10BD03491022CB6879
:101610001A42FCD0E1E7C04600080040180800204C
:101620009D15000030B583B00400FFF767F88023F4
:101630002268937201AD280000F0B6FD03236B70A1
:101640002900200000F0B8FD1849200000F0AEFF8E
:10165000174B02220021200000F0AEFC154B0022A7
:101660000021200000F0A8FC134B012200212000E3
:1016700000F0A2FC02220021200000F0C5FC0022A4
:101680000021200000F0C0FC01220021200000F019
:10169000BBFC21680B89094A1A408023DB001343F5
:1016A0000B810022064B1A7003B030BD9809002050
:1016B000E5170000A11A0000F9160000FFF3FFFF74
:1016C0003E05002010B50322074B1A70074C08494D
:1016D000200000F06BFF074B9A68002300212000D8
:1016E00000F012FF10BDC0463E0500201808002083
:1016F000980900208009002010B589794BB2002B91
:1017000006DB0E4B1B78022B0FD0032B11D010BD24
:101710000A4B1B78012B05D0042BF8D1084800F0A8
:101720009DFEF4E7FFF7CEFFF1E70422034B1A70AA
:10173000EDE7034800F092FEE9E7C0463E050020D1
:101740001808002070B5204B1B88204A9489E41AA1
:10175000A4B2002C18D11E4A11885B189BB21380CA
:101760001A4AD2889A4223D01A4B1B78002B1FD1D9
:10177000164B5B69002B23D09847002820D000220D
:10178000114B1A80114B9C893F2C19D90022114B07
:101790001A7040240C4D2B880C4A9268D2182300F2
:1017A00000210D4800F0B0FE2B88E4182C8070BD9D
:1017B00004220A4B1A700A49074800F0F7FEF6E7C0
:1017C0000122044B1A70E5E73A0500208009002049
:1017D0003C05002038050020180800203E050020A8
:1017E0009809002010B50C002C4B1B78002B07D05B
:1017F0002B4B1B69002B00D098470022274B1A70F7
:101800002388082B02D0FFF7B7FE10BD244A254BD2
:101810001978117059785170D878000299780918A0
:10182000518058790002197909189180D9790902F3
:101830009B795B18D380FEF7A7FF002816D0184BC2
:101840001B787F2B15D8164BDB88002B22D000236A
:10185000154A1380154A13800122104B1A70402339
:10186000104A0021124800F079FECEE7FFF784FE0F
:10187000CBE700230C4A13800C4A13800222074B4B
:101880001A704023074A0021094800F067FEFFF75D
:1018900059FFBAE7FFF716FFB7E7C0463E0500203D
:1018A00080090020980900203C0500203A0500200E
:1018B0001808002010B5FEF745FFFEF72BFD10BD00
:1018C00010B5074C0421200000F068FB0221200025
:1018D00000F054FB0120FFF70FFDFEF713FD10BDD4
:1018E0001808002010B5040001000A4800F086FD29
:1018F0002000FFF761FD837CDB070AD5837C012292
:10190000934383740368002B03D0C1682200012035
:10191000984710BD1808002000207047024B1B6834
:10192000188A8004400D70471808002070B582B0F6
:10193000040001AD280000F037FC2000FFF7D2FFC3
:101940002C700023EB70094E2900300000F034FCAD
:101950000F2121400022300000F042FB0022210034
:10196000300000F0B9FB02B070BDC046180800207E
:10197000F0B583B005000F00140001AE300000F098
:1019800013FC3570082C13D8002201AB5A702800C4
:10199000FFF712FD048203213940012938D00229C2
:1019A00043D0002303293DD1042201ABDA7032E099
:1019B000102C03D8012201AB5A70E8E7202C03D881
:1019C000022201AB5A70E2E7402C03D8032201AB9C
:1019D0005A70DCE7802C03D8042201AB5A70D6E79A
:1019E00080235B009C4203D8052201AB5A70CEE7EE
:1019F00080239B009C4203D8062201AB5A70C6E7A5
:101A0000164A002394420DD8072201AB5A70BEE754
:101A1000022201ABDA7001A9114800F0CDFB0023CE
:101A2000002806D0180003B0F0BD032201ABDA7025
:101A3000F1E70F2129400A4C0A4B0022200000F058
:101A4000BBFA00222900200000F0DEFA0122290062
:101A5000200000F0D9FA0123E4E7C046FF030000AC
:101A600018080020DD13000010B50100014800F047
:101A7000E0FC10BD1808002010B504000F2303403F
:101A80000020062B00D910BD2100044800F0E6FC20
:101A90002000FFF727FF0120F5E7C04618080020C7
:101AA00070B5344B1B78012B0AD0022B5FD0324B20
:101AB0001B69002B00D0984700222E4B1A7070BD76
:101AC0000D882D4B9B892D4A14886219934201DAA7
:101AD0001D1BADB2284B986800192A00284901F057
:101AE00091FB6419A4B2254B1C80402D0AD0224BD7
:101AF0009C815B69002B02D09847002814D0FFF727
:101B0000E1FDDCE71C4BDA881E4B1B881B199A424F
:101B1000EDDD194B9B89A3420CD04023184A0021CC
:101B2000194800F01BFDCAE70522124B1A70FFF797
:101B3000A3FFC4E7104B5B69002B0BD0984700282C
:101B40000FD010490D4A0B8810881B180B800023FA
:101B50001380E2E70522074B1A700020FFF78CFF85
:101B6000ADE70522034B1A70FFF786FFA7E7FFF7E3
:101B7000E9FDA4E73E050020800900203A05002089
:101B8000980900203C0500201808002070B50400CA
:101B90000F2303400020062B00D970BD2000FFF763
:101BA0000BFC05002100074800F06BFCAB7C01201A
:101BB000DB07F2D5AB7C01229343AB742B689847CB
:101BC0000120EAE718080020F0B587B0050003916E
:101BD000029201930F2606400024062E02D920000F
:101BE00007B0F0BDFFF740FF041E00D0BDE02800A5
:101BF000FFF7E2FB0700EFF310835A4253410593CE
:101C000072B6BFF35F8F00225B4B1A70059A837C1C
:101C1000DB0708D5002AE2D00122574B1A70BFF328
:101C20005F8F62B6DBE7837C01210B438374002A5C
:101C300005D00122504B1A70BFF35F8F62B6029B32
:101C40007B60019BBB600023FB600C9B3B6001231E
:101C5000039A13405A00BB7C02218B431343042296
:101C60009343BB746BB2002B20DB019B002B6FD026
:101C70009CB2424B9C425AD9398A1C00180001F090
:101C800077FA631A9AB23B8A9A4257D2BA7C0421F5
:101C90000A43BA74721E9201394952183100394808
:101CA00000F05CFC44424441E4B298E7019B002B05
:101CB00027D09DB2314B9D4206D9398A1D001800AC
:101CC00001F056FA6B1A9DB2BB7C9B0707D5398A87
:101CD000280001F063F989B24C424C41E4B2012082
:101CE00020404000BC7C02239C430443BC742B0076
:101CF000029A3100234800F007FC44424441E4B218
:101D00006DE7BB7C9B0705D5BB7C02229343BB746C
:101D10000025ECE7BB7C01229343BB740C9B002B9A
:101D200025D02A00002100209847012457E7398A4E
:101D3000200001F033F9631A9AB2A4E71300029A63
:101D40003100104800F00AFC44424441E4B246E746
:101D5000BB7C01229343BB740C9B002B09D02A004F
:101D6000002100209847012439E7002437E70124A7
:101D700035E7012433E7C046DD000020FF1F0000E7
:101D80009806002018080020024B1B688022104390
:101D90009872704718080020024B1B68987A40061A
:101DA000400E704718080020014B986099817047D9
:101DB0008009002010B5054B1A68138901210B43D7
:101DC00013810120FFF798FA10BDC04618080020C3
:101DD00010B50320FFF790FA194C226813890121EE
:101DE0008B431381174A0331200000F0B5F8164ADF
:101DF0000021200000F0B0F8144A0121200000F07A
:101E0000ABF8134A0221200000F0A6F804212000BC
:101E100000F0B4F80021200000F0B0F8012120000B
:101E200000F0ACF80221200000F0A8F8094A0621D1
:101E3000200000F091F80621200000F09FF810BD6E
:101E400018080020C1180000B51800002516000071
:101E5000C51500009D15000010B500210E20FEF7ED
:101E600013FF074B1B6A5B0406D4FFF7A3FF002197
:101E70000E20FEF7F9FE10BDFFF7AAFFF7E7C046F8
:101E80000044004170B586B0EFF310835A425341CD
:101E9000019372B6BFF35F8F0026294B1E70019D20
:101EA00005AC200000F086FEA670264E22002649D2
:101EB000300000F087FE300000F090FB234B9B8C3D
:101EC0009B0634D42149D022CB681340D02BFBD1C0
:101ED0000120FFF711FA02AC2000FEF74BFF0E23A2
:101EE00002930023636023720333E372023BA37205
:101EF00000210E20FEF7C8FE21000E20FEF744FF51
:101F000000220E211248FEF799FE00210E20FEF756
:101F1000ABFE104B1B6A5B040FD4002D05D00122D1
:101F2000074B1A70BFF35F8F62B606B070BD0749EA
:101F30001022CB681A42FCD0CAE7FFF78DFFECE70E
:101F4000DD0000201808002000500041000800407B
:101F5000591E00000044004110B50B002E339B00B9
:101F60001A50AA2252004900835A034C095B0B43C2
:101F70008352002010BDC046603200004900064B6D
:101F8000CB5A02689383AB214900425A1A4342520A
:101F90000268138300207047603200004900054B3F
:101FA000CA5AAB214900435A9343435203689A8269
:101FB000002070476032000010B58C00A418343443
:101FC000A4000419636040185930FF3003780349B6
:101FD0008A5C13430370002010BDC04670320000BD
:101FE00010B58B009B1834339B00C31800245C6031
:101FF00040185930FF30034B9A5C037893430370C9
:10200000002010BD7032000070B50F230B40C418C3
:102010006134FF3425782F4EB65C35432570002A95
:1020200029D1002B12D103250A24FF340668355527
:10203000032A09D149B2002944DB02685B01D318A5
:102040000A33FF3320221A70002070BD4CB2002CDE
:1020500008DB5C010568AC4664440A34FF340125A2
:102060002570E5E75C010568AC4664440A34FF343A
:1020700002252570DCE7012A1AD1002B05D1026860
:102080000C210A23FF33D154DEE749B2002907DBD4
:1020900002685B01D3180A33FF3304221A70D3E7B6
:1020A00002685B01D3180A33FF3308221A70CBE7AA
:1020B000022ABDD102685B01D3180A33FF33102214
:1020C0001A70C1E702685B01D3180A33FF3340225C
:1020D0001A70B9E77032000070B50F230B40C418B6
:1020E0006134FF342F4DAE5C2578B5432570002A4E
:1020F00029D1002B12D103258424640006683555AC
:10210000032A09D149B2002944DB02685B01D318D4
:102110000933FF3320221A70002070BD4CB2002C0E
:1021200008DB5C010568AC4664440934FF340125D2
:102130002570E5E75C010568AC4664440934FF346A
:1021400002252570DCE7012A1AD1002B05D102688F
:102150000C210933FF33D154DEE749B2002907DBF4
:1021600002685B01D3180933FF3304221A70D3E7E6
:1021700002685B01D3180933FF3308221A70CBE7DA
:10218000022ABDD102685B01D3180933FF33102244
:102190001A70C1E702685B01D3180933FF3340228C
:1021A0001A70B9E770320000002303704370837027
:1021B0000133C37070470000F0B50C780F23234043
:1021C00064B2CA78042A70D89200894DAA589746FA
:1021D000026808335B0100219954002282E05C010F
:1021E00002689446644480225200A55CE43A6D077C
:1021F00078D1E432A65C7025E43A2E4272D15F3D7C
:10220000E432A5541A00083252010468A4182F358C
:10221000657100688218802010718A78002A1FD0AA
:102220005801744A12185468802000060443546010
:1022300054692043506107254C785A016D4B9B1817
:1022400058682C4024076C4E304020435860497831
:102250005A692940090732400A435A61002241E085
:102260005801644A12185068400040085060506994
:10227000400040085061DEE7002C35DB5D0102685C
:102280009446654480225200AE5CE43A760729D138
:1022900080267600AA5D02273A43AA5502681800F4
:1022A00008304001121840205071E20F4F785D0055
:1022B000AD182D014F4E7519686807243C4024075E
:1022C0004D4E3040204368608978002900D088E076
:1022D0005B009B181B01474AD3185A6852005208EA
:1022E0005A6000221000F0BD5D010268944665440A
:1022F00080225200AF5C7026E43A3742F2D1903629
:10230000AA5D20273A43AA55026818000830400108
:10231000121880201071C8E7002C17DB5D010268DD
:102320009446654480225200AE5CE43A7607D9D1E7
:1023300080267600AA5D03273A43AA550268180052
:1023400008304001121840205071AEE75D0102686C
:102350009446654480225200AF5C7026E43A3742CE
:10236000C0D19036AA5D30273A43AA5502681800BA
:102370000830400112188020107196E7002C17DBFE
:102380005D0102689446654480225200AE5CE43AE6
:102390007607A7D180267600AA5D04273A43AA557E
:1023A00002681800083040011218402050717CE784
:1023B0005D0102689446654480225200AF5C70263D
:1023C000E43A374200D08DE79036AA5D40273A4381
:1023D000AA550268180008304001121880201071B8
:1023E00063E7696880231B060B436B60002279E773
:1023F0004C320000D8090020FFFFFF8F0F230B4055
:1024000049B200290ADB08335B010268D218402177
:1024100051710268D3180122DA71704708335B01E9
:102420000268D218802111710268D3180222DA7171
:10243000F3E70F230B4049B2002907DB026808339A
:102440005B01D3189879C006C00F70470268083343
:102450005B01D31898798006C00FF6E70F230B4075
:1024600049B2002906DB026808335B01D318102249
:102470005A717047026808335B01D31820225A71E1
:10248000F7E730B50F230B4049B200291DDB590196
:102490000268521883246400145DE40614D51025E4
:1024A000822464001555026852180821FF31515CDE
:1024B000890609D5E43C0821FF31545402680833E9
:1024C0005B01D31801221A7130BD590102685218FC
:1024D00083246400145DA406F6D5202582246400BC
:1024E0001555026852180821FF31515C4906EBD599
:1024F000C43C0821FF315454026808335B01D318EF
:1025000002221A71E0E7000030B50C0008346401C3
:102510000568645D6406640F1C25002C01D1280049
:1025200030BD4C010B4D2D192C002A616A690A4DF2
:102530002A40626162699B049B0C920B92031343D5
:102540006361036808314901591880234B710025E4
:10255000E5E7C046D8090020FF3F00F030B50C0089
:10256000083464010568645D64071C25002C01D1F2
:10257000280030BD0B4C4D012A51621954689B0450
:102580001B09094D2C402343536053689B0B9B034D
:102590005360036808314901591840230B71002525
:1025A000E6E7C046D8090020FF3F00F0094B19605C
:1025B0005A6809491140802292020A435A605A68B7
:1025C000920B92035A600268402182235B00D1542F
:1025D00000207047D8090020FF3F00F00268137800
:1025E00002210B43137002689378022BFCD07047D2
:1025F000F0B5DE4657464E464546E0B583B0C24B81
:102600001F683D682B78DB0914D12E8CB6B2002EE2
:1026100000D0A7E1AE8BB6B2AB235B00FB5AAA2277
:102620005200BD5A1D4035400024B84FB64B994664
:10263000984682E12B8C9BB2002B00D1DEE0288CE7
:1026400080B200F09BFD04001F2800D9D6E00300F3
:1026500008335B01ED18ED79EDB2AB0741D0AC4A20
:1026600001238340116899431160030008335B0123
:102670003A68944663440322DA713B18AE331B7800
:10268000DB072ED5A34B18703A68030008335B01B3
:102690009B5C9B079B0F012B00D181E042019E4B6D
:1026A0009B185A681201920C90B29A494A805A6853
:1026B0009204920C8A805A6898490A405A6000280D
:1026C00007D16201944B9B185B689B049B0C914A59
:1026D00053808D4B1868A31C1B01C3185B688D4980
:1026E00098476B070ED58A4A0123A3401168994386
:1026F0001160854B1B681B682200083252019B1831
:102700000422DA712B0714D5814A0123A3401168F2
:10271000994311607C4B1868230008335B01026801
:10272000944663440822DA710319AE331B789B0781
:1027300047D4EB0614D5764A0123A3401168994388
:102740001160714B1868230008335B0102689446DE
:1027500063441022DA710319AE331B785B073ED451
:10276000AB0600D4B0E06A4A0123A3401168994344
:102770001160654B1868230008335B0102689446BA
:1027800063442022DA710319AE331B781B0700D48F
:102790009AE060490C7024010419236B984793E078
:1027A00042015D4B9B185A689204920C59494A8029
:1027B0005A681201920C8A805A68920B92035A60EE
:1027C00087E754490C706201534B9B18DB891F2229
:1027D00013404B702301C3189B6A9847A9E74D49E2
:1027E0000C7062014C4B9B185B681B019B0C4B806F
:1027F0002301C318DB6A00219847B1E7AC8BA4B270
:10280000630705D50423AB83A133FB5CDB0762D4EC
:1028100023070BD500223E4B1A603B4B1868082358
:10282000026893839D33C35C9B0758D4630608D525
:10283000354B18684023026893836533C35CDB061D
:1028400050D4A30608D5304B186820230268938320
:102850008533C35C1B0748D4E30608D52A4B1868A8
:102860001023026893839533C35C5B0740D423062F
:102870000BD50022264B1A60234B18688023026870
:1028800093832533C35C9B0635D4E3050CD5002226
:102890001F4B1A601C4B186880235B0002689383EF
:1028A0005B3BC35C5B0629D4A3050DD50022184B06
:1028B0001A60154B186880239B00026893835C3B69
:1028C000FF3BC35C7F2B1CD803B03CBC90469946B1
:1028D000A246AB46F0BD7B683800984798E783680E
:1028E0009847A3E743699847ABE703699847B3E77D
:1028F000C3689847BBE783699847C6E7C3699847A9
:10290000D2E7036A9847DFE7340600206032000010
:102910004406002048060020D8090020FF3F00F0B0
:1029200023002E339B00424612689B589E49424624
:10293000106898470134072CC6D06300DB5B334234
:1029400003D04A461268126893832B42F2D0062CB9
:10295000E6D1964B1B891B09802252001340924AF4
:102960001360DDE73C005934FF3400230122944614
:102970005F329146503A92460D3A9346B8462F0040
:10298000B9E02A003D00474690465B01ED18082358
:10299000FF33EB5C5B0616D540220823FF33EA5475
:1029A000883BFF3B42461343814A937160230B42AD
:1029B00000D189E7019B1B01FB18E0331B687C49B0
:1029C0003800984780E70823FF33EB5C9B06EDD582
:1029D00020220823FF33EA54754B42469A71E5E7FB
:1029E0003D004746019A130008335B01ED181023A0
:1029F000EB71BB186133FF331B78DB0600D463E750
:102A000010005201694B9B185B689B049B0C684942
:102A10000B800301FB18DC331B684046984753E7E3
:102A20002A003D00474690465B01ED180823FF331E
:102A3000EB5C9B071ED502220823FF33EA545C4857
:102A4000883BFF3B424613438371019B5A01574B1E
:102A50009B1810335B689B049B0C43808B0700D151
:102A600032E7019B0D331B01FB185B6850493800AE
:102A7000984729E70823FF33EB5CDB07EED50122FB
:102A80000823FF33EA544A4843468371019B5B01A4
:102A9000464AD21853689B049B0C038053681B0161
:102AA0009B0C8380DAE70822FF329A5C52076ED5CE
:102AB00004200822FF329854019842013B4B9B1896
:102AC0009B7A9B0705D5394B9B189A7A0220824343
:102AD0009A72374B42469A71019B08335B013A6800
:102AE00094466344DB79DB0751D5EDE601330134CD
:102AF000082B00D1E8E6DDB2019332001A416146AD
:102B00001142F3D01A0008325201BA18D279D2B267
:102B1000217A1140207801404846104200D030E729
:102B20005046104200D05BE75846104200D077E78D
:102B30000C201042DAD02A003D00474690465B0147
:102B4000EB180822FF329A5C1207ACD50438082231
:102B5000FF32985401984201144B9B189B7E9B07AF
:102B600005D5124B9B189A7E022082439A768023C9
:102B70005B42424613430E4A9371019B08335B014B
:102B80003A6894466344DB799B0700D59CE60C23A6
:102B90000B4200D198E6019B1B01FB18D8331B6840
:102BA0000349380098478FE638060020D8090020EE
:102BB0003C06002000220270012343708270C37023
:102BC00070470000F0B5C64600B582B004000D00A5
:102BD000160000236D4A13606D4A106021606D4934
:102BE000CA6920200243CA6101AF7B700122BA701A
:102BF000FB70063398463B7039000838FEF758FBE7
:102C000043463B7039001920FEF752FBB3786A4601
:102C1000137069460620FEF7EBFA0620FEF7AAFAC3
:102C20002B78012213432B70AB78DB07FCD45A4A74
:102C3000D37803218B4302210B43D370D3780C212B
:102C40008B4308210B43D370544B1B689B03DB0E53
:102C50001F2B00D18EE02A8D9B0151490A4013435E
:102C60002B854E4B1B685B02DB0E1F2B00D183E0D4
:102C70002A8D1F218A4313432B85484B1B689B01D8
:102C80005B0F072B00D179E02A8D1B0345490A40D1
:102C900013432B8532782978D2017F230B401343CD
:102CA0002B7071782B7801220A40920004218B430B
:102CB00013432B703C4B6B62F378012B60D0002BDD
:102CC00006D1226813890C218B4304210B43138105
:102CD000802252000021344800F09DFA231D21007B
:102CE0002431002204C38B42FCD12100A4310022F4
:102CF0001A605A609A60DA6010338B42F8D1002370
:102D0000A422A3540132A3542300A6332100AE31E0
:102D100000221A701A7201339942FAD12300B83393
:102D20002100D431002204C38B42FCD12100553153
:102D3000FF3100221A605A609A60DA6010338B42C9
:102D4000F8D10023AA225200A3520232A352230038
:102D50005933FF336134FF3400221A701A72013381
:102D6000A342FAD18022114B1A60002002B004BCA9
:102D70009046F0BD1A3B6EE7023B79E7043B83E7E0
:102D80002268138908318B431381A1E74406002090
:102D90003406002000040040005000412460800000
:102DA0003FF8FFFFFF8FFFFFD809002000E100E0A0
:102DB000FEE70000F8B52A4A2A4B9A4211D01A00C1
:102DC000294B9A420DD2294A03339B1A9B0801339F
:102DD0009B000022234822498C58845004329A4296
:102DE000FAD1234A234B9A420AD2D34321495B1892
:102DF00003218B4304339B18002102C29342FCD170
:102E00001D4AFF211D4B8B439360FD3990235B00CE
:102E10001B4AD1501B4AD3780325AB4302242343DA
:102E2000D370D3780C27BB4308263343D370164B9B
:102E3000987B30229043202210439873997BB943AA
:102E4000314399739A7BAA4322439A730F4A53687A
:102E500080210B43536000F0B1F9FDF7D9F9FEE78B
:102E60009432000000000020E00000200400002058
:102E7000E0000020D80A002000ED00E00000000083
:102E800000700041005000410048004100400041F6
:102E9000002243088B4274D303098B425FD3030A99
:102EA0008B4244D3030B8B4228D3030C8B420DD3AC
:102EB000FF22090212BA030C8B4202D3121209023A
:102EC00065D0030B8B4219D300E0090AC30B8B4278
:102ED00001D3CB03C01A5241830B8B4201D38B0326
:102EE000C01A5241430B8B4201D34B03C01A5241CB
:102EF000030B8B4201D30B03C01A5241C30A8B420E
:102F000001D3CB02C01A5241830A8B4201D38B02F8
:102F1000C01A5241430A8B4201D34B02C01A52419C
:102F2000030A8B4201D30B02C01A5241CDD2C3090E
:102F30008B4201D3CB01C01A524183098B4201D38A
:102F40008B01C01A524143098B4201D34B01C01A75
:102F5000524103098B4201D30B01C01A5241C308ED
:102F60008B4201D3CB00C01A524183088B4201D35C
:102F70008B00C01A524143088B4201D34B00C01A48
:102F80005241411A00D20146524110467047FFE7B4
:102F900001B5002000F0F0F802BDC0460029F7D0CE
:102FA00076E7704703460B437FD4002243088B42E9
:102FB00074D303098B425FD3030A8B4244D3030BC0
:102FC0008B4228D3030C8B420DD3FF22090212BA85
:102FD000030C8B4202D31212090265D0030B8B4201
:102FE00019D300E0090AC30B8B4201D3CB03C01AEB
:102FF0005241830B8B4201D38B03C01A5241430BC6
:103000008B4201D34B03C01A5241030B8B4201D3B5
:103010000B03C01A5241C30A8B4201D3CB02C01A20
:103020005241830A8B4201D38B02C01A5241430A98
:103030008B4201D34B02C01A5241030A8B4201D387
:103040000B02C01A5241CDD2C3098B4201D3CB012E
:10305000C01A524183098B4201D38B01C01A5241DD
:1030600043098B4201D34B01C01A524103098B42E1
:1030700001D30B01C01A5241C3088B4201D3CB00CC
:10308000C01A524183088B4201D38B00C01A5241AF
:1030900043088B4201D34B00C01A5241411A00D25F
:1030A00001465241104670475DE0CA0F00D04942C8
:1030B000031000D34042534000229C4603098B4238
:1030C0002DD3030A8B4212D3FC22890112BA030AC0
:1030D0008B420CD3890192118B4208D38901921142
:1030E0008B4204D389013AD0921100E08909C309C7
:1030F0008B4201D3CB01C01A524183098B4201D3C9
:103100008B01C01A524143098B4201D34B01C01AB3
:10311000524103098B4201D30B01C01A5241C3082B
:103120008B4201D3CB00C01A524183088B4201D39A
:103130008B00C01A5241D9D243088B4201D34B00B5
:10314000C01A5241411A00D20146634652415B10F7
:10315000104601D34042002B00D5494270476346D8
:103160005B1000D3404201B5002000F005F802BD1D
:103170000029F8D016E770477047C0464142084022
:103180001C2101231B04984201D3000C10391B0A97
:10319000984201D3000A08391B09984201D300095B
:1031A000043902A2105C401A7047C0461B1C1D1D4A
:1031B0001E1E1E1E1F1F1F1F1F1F1F1F70B5002654
:1031C0000C4D0D4C641BA410A64209D1002600F042
:1031D00051F80A4D0A4C641BA410A64205D170BDDB
:1031E000B300EB5898470136EEE7B300EB58984729
:1031F0000136F2E7803200008032000080320000A9
:1032000084320000002310B59A4200D110BDCC5C7E
:10321000C4540133F8E703008218934200D1704789
:1032200019700133F9E70004040F0000E40E0000F8
:10323000E40E0000700F0000F60E0000120F0000F8
:10324000E80E0000200F0000600F0000D0210000F9
:10325000DE21000078220000182300007C230000FB
:10326000040008007000800001000001000200005E
:10327000030C1060F8B5C046F8BC08BC9E46704709
:10328000DD000000F8B5C046F8BC08BC9E4670479B
:04329000B500000085
:10329400010000006D0400008D040000A50400007E
:1032A40061040000000000007400002024000020DD
:1032B400000000002C0000208800002009024500C6
:1032C400010100C0320904000000FFFFFF000904EF
:1032D400000106FFFFFF0007058103400001070509
:1032E40002034000010705830240000007050402B1
:1032F40040000007058501000101070506010001E2
:10330400010000001201000200000040EB0323242E
:10331400000101020001000004000020000300007D
:103324000000000000000000000000000000000099
:103334000000000000000000000000000000000089
:1033440000000000000000000403090441544D453E
:103354004C2041534600000056656E646F72204352
:103364006C617373204578616D706C6500010000B9
:0400000300002DB517
:00000001FF
